:100000000C9463000C948B000C948B000C948B006C
:100010000C948B000C948B000C948B000C94F704C4
:100020000C948B000C948B000C948B000C94AB05FF
:100030000C948B000C948B000C948B000C948B0014
:100040000C94AD040C948B000C9479050C9453051E
:100050000C948B000C948B000C948B000C948B00F4
:100060000C948B000C948B000000000023002600F1
:10007000290000000000240027002A0000000008DA
:10008000000201000003040700000000000000005F
:10009000010204081020408001020408102001021F
:1000A0000408102000000000250028002B00040494
:1000B0000404040404040202020202020303030310
:1000C00003030200670611241FBECFEFD8E0DEBF96
:1000D000CDBF11E0A0E0B1E0E4E2F5E102C005909F
:1000E0000D92AC31B107D9F722E0ACE1B1E001C02B
:1000F0001D92A830B207E1F710E0C3E6D0E004C0DB
:100100002197FE010E948A0AC236D107C9F70E94D0
:10011000C4060C94900A0C940000CF92DF92EF92E8
:10012000FF92DC01A03282E0B807D4F5A53BB1050F
:1001300014F0A4EBB0E04091060228E830E0241B64
:10014000310947FD3395220F331F220F331F6901F9
:10015000330FEE08FF084091070228E532E0241B28
:10016000310947FD3395220F331F220F331F032E12
:10017000000C440B550B2C193D094E095F09B7FFC4
:1001800002C0B0E0A0E00E94450A24EB30E040E06D
:1001900050E00E941B0AC20ED31EE41EF51ED601BB
:1001A000E0910502EC3080F52091060288E890E0AD
:1001B000821B910927FD9395880F991F880F991F1E
:1001C000A817B90784F02091070288E592E0821B06
:1001D000910927FD9395880F991F880F991FA817DC
:1001E000B9070CF4CD010297880F991F4FB7F89407
:1001F0002E2F30E0F901EE0FFF1FE20FF31FE05248
:10020000FE4F928381834FBFFF90EF90DF90CF909E
:100210000895833081F028F4813099F08230A9F07C
:1002200008958730A9F08830C9F08430B1F4809106
:1002300080008F7D03C0809180008F778093800045
:10024000089584B58F7784BD089584B58F7DFBCFE5
:100250008091B0008F778093B00008958091B000B6
:100260008F7DF9CF1F93CF93DF93282F30E0F901D3
:10027000E458FF4F8491F901E057FF4FD491F90101
:10028000E255FF4FC491CC23A9F0162F81110E9493
:100290000901EC2FF0E0EE0FFF1FEC55FF4FA59189
:1002A000B4918FB7F894EC91111108C0D095DE236A
:1002B000DC938FBFDF91CF911F910895DE2BF8CF94
:1002C000CF93DF9390E0FC01E057FF4F24918255DC
:1002D0009F4FFC0184918823D1F090E0880F991FF3
:1002E000FC01EE58FF4FA591B491FC01EC55FF4F76
:1002F000C591D49161110EC09FB7F8948C91E22FF3
:10030000E0958E238C932881E223E8839FBFDF91C1
:10031000CF9108958FB7F894EC91E22BEC938FBFB7
:10032000F6CFCF92DF92EF92FF92CF936C01809144
:100330000201893049F08F3F09F45BC0CF91FF90F3
:10034000EF90DF90CF900895E2ECF0E0C491C7FD0C
:10035000F5CF61E089E00E946001CC2319F0C23042
:1003600009F01EC1F12CE12C60E472E48FE090E012
:10037000A70196010E941B0ABA01A9014150510927
:1003800061097109C23009F0A3C04F3F51056105F1
:10039000710509F00CF402C160E970ED83E090E0B2
:1003A000A70196010E941B0ABA01A90141505109F7
:1003B0006109710983E04F3F51056105710509F03D
:1003C0000CF4DCC068E478EE81E090E0A7019601CF
:1003D0000E941B0ABA01A901415051096109710922
:1003E0004F3F51056105710511F00CF0B8C084E074
:1003F000C5C089E080930201E2ECF0E0C491CF3FF8
:1004000009F49CCFC13021F150F0C23009F43EC054
:10041000C7FD94CF61E089E00E946001A0CF14BCC9
:1004200015BC84B5826084BD85B5816085BDE7EB70
:10043000F0E0E491F0E0EE0FFF1FEC55FF4F8591E7
:100440009491E9E9F0E0E491E0933601C0E081CFD6
:1004500010928000109281008091810088608093CA
:10046000810080918100816080938100E7EBF0E062
:10047000E491F0E0EE0FFF1FEC55FF4F8591949152
:10048000E9E9F0E0E491E093350163CF1092B00028
:100490001092B1008091B00082608093B000809192
:1004A000B10081608093B100E7EBF0E0E491F0E00F
:1004B000EE0FFF1FEC55FF4F8591949190933401FF
:1004C00080933301E9E9F0E0E491E093320141CF18
:1004D0004F3F51056105710509F00CF45CC068E4FB
:1004E00078EE81E090E0A70196010E941B0ABA0114
:1004F000A9014150510961097109CC2309F48FC048
:100500004F3F51056105710509F00CF470CF62E1B0
:100510007AE780E090E0A70196010E941B0ABA01E9
:10052000A901415051096109710986E0C11126C034
:1005300094E085B5887F892B85BD47BD8FEF9FEF00
:10054000DC0180933F0190934001A0934101B0935F
:10055000420180916E00826080936E00EFCE64E273
:1005600074EF80E090E0A70196010E941B0ABA0197
:10057000A901415051096109710985E09091B100CB
:10058000987F892B8093B100C13009F1C230A1F16D
:10059000C111D4CED2CF92E0CC2359F282E0EECF7B
:1005A000960150E040E060E072E18AE790E00E944E
:1005B0001B0ABA01A9014150510961097109C130F1
:1005C00019F780918100887F81608093810050932A
:1005D0008900409388008FEF9FEFDC0180933B01FF
:1005E00090933C01A0933D01B0933E0180916F0038
:1005F000826080936F00A2CE4093B3008FEF9FEF95
:10060000DC018093370190933801A0933901B093B6
:100610003A01809170008260809370008FCE93E0E9
:100620004F3F51056105710511F00CF070CF81CF7E
:100630003FB7F89480912E0190912F01A091300145
:10064000B091310126B5A89B05C02F3F19F0019646
:10065000A11DB11D3FBFBA2FA92F982F8827BC011C
:10066000CD01620F711D811D911D42E0660F771F44
:10067000881F991F4A95D1F708958F929F92AF9244
:10068000BF92CF92DF92EF92FF924B015C010E94EA
:1006900018036B017C010E9418036C197D098E09F7
:1006A0009F09683E734081059105A8F321E0821AF5
:1006B0009108A108B10888EEC80E83E0D81EE11C9D
:1006C000F11C81149104A104B10429F7FF90EF906B
:1006D000DF90CF90BF90AF909F908F9008959091B2
:1006E000020189130BC0E2ECF0E0E4919FEF9093DC
:1006F0000201E13049F028F0E23061F060E00C9452
:10070000320110926E00FACF90916F009D7F90930E
:100710006F00F4CF909170009D7F9093700091E0F6
:100720009093B0009091B100987F94609093B10045
:100730001092B300E3CFAF92BF92CF92DF92EF92CD
:10074000FF920F931F93CF93DF936C017B018B017B
:10075000040F151FEB015E01AE18BF08C017D107CB
:1007600059F06991D601ED91FC910190F081E02D55
:10077000C6010995892B79F7C501DF91CF911F91AA
:100780000F91FF90EF90DF90CF90BF90AF900895C2
:10079000FC01538D448D252F30E0842F90E0821B87
:1007A000930B541710F0CF96089501970895FC010C
:1007B000918D828D981761F0A28DAE0FBF2FB11D64
:1007C0005D968C91928D9F5F9F73928F90E00895BC
:1007D0008FEF9FEF0895FC01918D828D981731F076
:1007E000828DE80FF11D858D90E008958FEF9FEFCA
:1007F0000895FC01918D228D892F90E0805C9F4FA0
:10080000821B91098F739927089583E491E00E94D8
:10081000F90321E0892B09F420E0822F089580E07C
:1008200090E0892B29F00E94050481110C940000AE
:100830000895FC01A48DA80FB92FB11DA35ABF4F75
:100840002C91848D90E001968F739927848FA689CF
:10085000B7892C93A089B1898C91837080648C9323
:10086000938D848D981306C00288F389E02D8081D2
:100870008F7D80830895EF92FF920F931F93CF9304
:10088000DF93EC0181E0888F9B8D8C8D98131AC0CB
:10089000E889F989808185FF15C09FB7F894EE89B2
:1008A000FF896083E889F98980818370806480830F
:1008B0009FBF81E090E0DF91CF911F910F91FF905A
:1008C000EF900895F62E0B8D10E00F5F1F4F0F7302
:1008D0001127E02E8C8D8E110CC00FB607FCFACFBD
:1008E000E889F989808185FFF5CFCE010E9419043E
:1008F000F1CFEB8DEC0FFD2FF11DE35AFF4FF0828E
:100900009FB7F8940B8FEA89FB8980818062CFCFF3
:10091000682F83E491E00C943B04CF93DF93EC01C8
:10092000888D8823B9F0AA89BB89E889F9898C91D7
:1009300085FD03C0808186FD0DC00FB607FCF7CF93
:100940008C9185FFF2CF808185FFEDCFCE010E9493
:100950001904E9CFDF91CF9108951F920F920FB63E
:100960000F9211242F933F938F939F93AF93BF9335
:1009700080912A0190912B01A0912C01B0912D0121
:100980003091290123E0230F2D3758F50196A11D41
:10099000B11D2093290180932A0190932B01A093EC
:1009A0002C01B0932D0180912E0190912F01A091E7
:1009B0003001B09131010196A11DB11D80932E012E
:1009C00090932F01A0933001B0933101BF91AF916B
:1009D0009F918F913F912F910F900FBE0F901F907D
:1009E000189526E8230F0296A11DB11DD2CF1F92A4
:1009F0000F920FB60F9211242F933F934F935F9353
:100A00006F937F938F939F93AF93BF93EF93FF93D6
:100A10008091370190913801A0913901B0913A014C
:100A2000892B8A2B8B2BD1F190913201E0913301EC
:100A3000F0913401808189278083809137019091E2
:100A40003801A0913901B0913A01181619061A0619
:100A50001B069CF48091370190913801A0913901D7
:100A6000B0913A010197A109B109809337019093A0
:100A70003801A0933901B0933A01FF91EF91BF91F2
:100A8000AF919F918F917F916F915F914F913F9126
:100A90002F910F900FBE0F901F901895809102011B
:100AA0000E946F03EACF1F920F920FB60F9211248C
:100AB0002F933F934F935F936F937F938F939F9366
:100AC000AF93BF93EF93FF9383E491E00E941904E7
:100AD000FF91EF91BF91AF919F918F917F916F9116
:100AE0005F914F913F912F910F900FBE0F901F90EC
:100AF00018951F920F920FB60F9211242F938F9378
:100B00009F93EF93FF93E0915301F0915401808103
:100B1000E0915901F0915A0182FD1BC090818091B2
:100B20005C018F5F8F7320915D01821741F0E0912E
:100B30005C01F0E0ED5BFE4F958F80935C01FF91CF
:100B4000EF919F918F912F910F900FBE0F901F905B
:100B500018958081F4CF1F920F920FB60F92112437
:100B60002F933F934F935F936F937F938F939F93B5
:100B7000AF93BF93CF93DF93EF93FF9380911C01CB
:100B8000C0910402D0E087FF24C01092850010922B
:100B9000840080911C018F5F80931C0180911C0157
:100BA000082E000C990B8C179D0724F480911C01D2
:100BB0008C30C4F18091840090918500049680343B
:100BC0009C4908F47AC08091840090918500049635
:100BD00076C080911C01082E000C990B8C179D0784
:100BE000C4F6E0911C018E2FEE0F990BFC01EE0F65
:100BF000FF1FE80FF91FE052FE4F808186FFC9CF2B
:100C0000E0911C018E2FEE0F990BFC01EE0FFF1FE0
:100C1000E80FF91FE052FE4F808160E08F730E9461
:100C20003201B7CF2091840030918500E0911C0102
:100C30008E2FEE0F990BFC01EE0FFF1FE80FF91F2F
:100C4000E052FE4F81819281820F931F9093890021
:100C500080938800E0911C018E2FEE0F990BFC0110
:100C6000EE0FFF1FE80FF91FE052FE4F808186FF55
:100C700011C0E0911C018E2FEE0F990BFC01EE0FBD
:100C8000FF1FE80FF91FE052FE4F808161E08F7374
:100C90000E943201FF91EF91DF91CF91BF91AF910F
:100CA0009F918F917F916F915F914F913F912F9184
:100CB0000F900FBE0F901F90189580E49CE99093C1
:100CC0008900809388008FEF80931C01E3CF1092FE
:100CD00046011092450188EE93E0A0E0B0E08093D9
:100CE000470190934801A0934901B0934A018DE0D8
:100CF00091E0909344018093430185EC90E09093C0
:100D0000500180934F0184EC90E0909352018093C6
:100D1000510180EC90E0909354018093530181EC59
:100D200090E0909356018093550182EC90E090936F
:100D300058018093570186EC90E090935A0180937C
:100D4000590110925C0110925D0110925E011092A7
:100D50005F01809104028C3098F491E0980F909399
:100D600004028093050290E0FC01EE0FFF1FE80FE4
:100D7000F91FE052FE4F88EB9BE092838183089538
:100D80008FEF809305020895789484B5826084BDC6
:100D900084B5816084BD85B5826085BD85B581607F
:100DA00085BD80916E00816080936E0010928100FD
:100DB00080918100826080938100809181008160B8
:100DC0008093810080918000816080938000809179
:100DD000B10084608093B1008091B0008160809305
:100DE000B00080917A00846080937A0080917A00CC
:100DF000826080937A0080917A00816080937A008B
:100E000080917A00806880937A001092C10061E03E
:100E100082E00E94600161E083E00E94600161E085
:100E200084E00E94600161E085E00E94600160E072
:100E30008EE00E94600160E08CE00E94600161E051
:100E400089E00E946001809105028C3008F051C059
:100E500061E08AE00E94600180910502282F30E065
:100E6000F901EE0FFF1FE20FF31FE052FE4F9081DA
:100E7000907C9A60908310920602109207022CE0F8
:100E8000622F0E947E0A829FB001112430E020E090
:100E9000AB01420F531FFA01EE0FFF1FE40FF51FC6
:100EA000E052FE4F908196FD16C02F5F3F4F2C30D1
:100EB000310571F781110FC01092800082E080939C
:100EC00081001092850010928400B19A80916F0089
:100ED000826080936F00E09105028E2F90E0FC010C
:100EE000EE0FFF1FE80FF91FE052FE4F8081806474
:100EF00080830E94C30920E031E040E050E00E947E
:100F00001B0A70932301609322010E94C30922E00F
:100F100030E040E050E00E941B0A70932101609392
:100F20002001E0915301F091540182E08083E0912F
:100F30004F01F09150011082E0915101F091520166
:100F40008FEC808310925B01E0915701F091580182
:100F500086E08083E0915501F091560180818061A7
:100F60008083E0915501F0915601808188608083F3
:100F7000E0915501F0915601808180688083E09175
:100F80005501F091560180818F7D8083C12CD12C39
:100F90007601D39442E0842E912CA12CB12C50E008
:100FA000252E50E0352E6AE5462E512C20E4722E77
:100FB00070927C0080917A00806480937A008091A6
:100FC0007A0086FDFCCF80917800C0917900DC2FFB
:100FD000C82FD0932801C0932701E8E8F0E084915E
:100FE000ECE9F0E01491EAEBF0E00491002309F45D
:100FF000EAC081110E940901E02FF0E0EE0FFF1F0F
:10100000E859FF4FA591B4918C91182391E080E0AD
:1010100009F490E09093250180932601D7FD239653
:10102000D595C795D595C795D0932801C09327012D
:1010300064E670E080E090E00E943D03809124012E
:10104000882309F437C1809100019091010197FD37
:10105000BDC02FB7F89480912A0190912B01A091E7
:101060002C01B0912D012FBF40911D0150911E0107
:10107000052E000C660B770B841B950BA60BB70B8C
:10108000883C9105A105B105D8F0C0910001D0912F
:101090000101CE010E948D002197D0930101C093E0
:1010A00000012FB7F89480912A0190912B01A09113
:1010B0002C01B0912D012FBF90931E0180931D0133
:1010C000E0912001F0912101E95FFE4F8081809342
:1010D0001F01882369F080912501909126010197D5
:1010E00009F0BDC010921F01109221011092200141
:1010F00080912701909128018A3F91050CF4B3C09B
:1011000061E082E00E94320161E083E00E943201EE
:1011100061E084E00E94320161E085E00E943201DA
:10112000C0912701D09128011C161D063CF080912A
:101130002401811103C081E08093240100912201E8
:101140001091230160901F01C017D107D9F46110DD
:1011500019C088E893E10E9491016AE070E080E0A4
:1011600090E00E943D0388E293E20E9491016AE0D0
:1011700070E080E090E00E943D0389E00E946F03F0
:1011800010922401CE010E948804C8010E948804A4
:10119000862D90E00E9488048091000190910101C9
:1011A0000E9488048091240190E00E948804211408
:1011B000310409F4FDCE0E940504882309F4F6CE1B
:1011C0000E940000F3CE90E080E024CF61E082E056
:1011D0000E94320161E083E00E94320161E084E01C
:1011E0000E94320161E085E00E9432018CE291E0D0
:1011F0000E94910160E273E080E090E00E943D0374
:1012000089E00E946F0360E273E080E090E00E945A
:101210003D038CE291E00E94910160E273E080E086
:1012200090E00E943D0389E00E946F0360E273E05A
:1012300080E090E00E943D0360E082E00E94320185
:1012400060E083E00E94320160E084E00E943201AD
:1012500060E085E00E9432011092240131CF89E0E4
:101260000E946F0345CF8D37910574F061E082E0F5
:101270000E94320161E083E00E94320161E084E07B
:101280000E94320160E049CF8F33910554F061E054
:1012900082E00E94320161E083E00E94320160E05E
:1012A000EECF61E080970CF460E082E00E943201B2
:1012B00060E0F2CF50920101409200018AE590E097
:1012C0000E948D000E94C309A70196010E941B0A7B
:1012D00070932301609322010E94C309A501940128
:1012E0000E941B0A7093210160932001DDCF8F9231
:1012F0009F92AF92BF92CF92DF92EF92FF92CF93E5
:10130000DF93EC01688179818A819B816115710588
:101310008105910521F464E279ED8BE597E02DE1FB
:1013200033EF41E050E00E941B0A49015A019B0142
:10133000AC01A7EAB1E40E943A0A6B017C01ACEE71
:10134000B4EFA50194010E94480AC60ED71EE81EFC
:10135000F91EF7FE06C081E0C81AD108E10880E84E
:10136000F80AC882D982EA82FB82C701B6019F7758
:10137000DF91CF91FF90EF90DF90CF90BF90AF9033
:101380009F908F9008958F929F92AF92BF92CF922D
:10139000DF92EF92FF9260910301709104018091BE
:1013A000050190910601611571058105910521F4F2
:1013B00064E279ED8BE597E02DE133EF41E050E019
:1013C0000E941B0A49015A019B01AC01A7EAB1E442
:1013D0000E943A0A6B017C01ACEEB4EFA5019401C6
:1013E0000E94480AC60ED71EE81EF91EF7FE06C068
:1013F00081E0C81AD108E10880E8F80AC092030128
:10140000D0920401E0920501F0920601C701B601F5
:101410009F77FF90EF90DF90CF90BF90AF909F901D
:101420008F900895609303017093040180930501E8
:10143000909306010895052E97FB1EF400940E94D8
:10144000320A57FD07D00E944D0A07FC03D04EF424
:101450000C94320A50954095309521953F4F4F4F4F
:101460005F4F089590958095709561957F4F8F4F50
:101470009F4F08950E946F0AA59F900DB49F900DF5
:10148000A49F800D911D11240895B7FF0C943A0A72
:101490000E943A0A821B930B0895A1E21A2EAA1BFE
:1014A000BB1BFD010DC0AA1FBB1FEE1FFF1FA21714
:1014B000B307E407F50720F0A21BB30BE40BF50B11
:1014C000661F771F881F991F1A9469F7609570959A
:1014D000809590959B01AC01BD01CF010895A29F1D
:1014E000B001B39FC001A39F700D811D1124911DF8
:1014F000B29F700D811D1124911D0895991B79E0F3
:1015000004C0991F961708F0961B881F7A95C9F793
:1015100080950895EE0FFF1F0590F491E02D09943A
:04152000F894FFCF6D
:101524005A00FF010000000001000000003B049B82
:0C15340003C8038D04F903D703EB030088
:00000001FF
