:100000000C9463000C948B000C948B000C948B006C
:100010000C948B000C948B000C948B000C941C03A0
:100020000C948B000C948B000C948B000C94D003DC
:100030000C948B000C948B000C948B000C948B0014
:100040000C94D2020C948B000C949E030C947803B5
:100050000C948B000C948B000C948B000C948B00F4
:100060000C948B000C948B000200000000240027ED
:10007000002A0000000000250028002B00000000DE
:1000800000230026002900040404040404040402DC
:100090000202020202030303030303010204081025
:1000A00020408001020408102001020408102000F2
:1000B0000000080002010000030407000000000027
:1000C000000000008C0411241FBECFEFD8E0DEBF7B
:1000D000CDBF11E0A0E0B1E0EEEFFFE002C005907F
:1000E0000D92A431B107D9F721E0A4E1B1E001C03C
:1000F0001D92A83FB207E1F710E0C3E6D0E004C0CC
:100100002197FE010E94F707C236D107C9F70E9466
:10011000E9040C94FD070C940000E091F501EC302B
:1001200088F54091F60128E830E0241B310947FDAD
:100130003395220F331F220F331F8217930784F04A
:100140004091F70128E532E0241B310947FD339542
:10015000220F331F220F331F821793070CF49C01C9
:1001600022503109220F331F4FB7F8948E2F90E0A1
:10017000FC01EE0FFF1FE80FF91FE053FE4F328323
:1001800021834FBF0895833081F028F4813099F0A6
:100190008230A9F008958730A9F08830C9F0843002
:1001A000B1F4809180008F7D03C0809180008F77B3
:1001B00080938000089584B58F7784BD089584B5B9
:1001C0008F7DFBCF8091B0008F778093B000089532
:1001D0008091B0008F7DF9CFCF93DF93282F30E04F
:1001E000F901E155FF4F8491F901E556FF4FD49194
:1001F000F901E957FF4FC491CC23A1F081110E946E
:10020000C300EC2FF0E0EE0FFF1FE358FF4FA59166
:10021000B491EC91ED2381E090E009F480E0DF916E
:10022000CF91089580E090E0FACF1F93CF93DF93B2
:10023000282F30E0F901E155FF4F8491F901E5568F
:10024000FF4FD491F901E957FF4FC491CC23A9F096
:10025000162F81110E94C300EC2FF0E0EE0FFF1F5C
:10026000ED58FF4FA591B4918FB7F894EC9111110F
:1002700008C0D095DE23DC938FBFDF91CF911F9113
:100280000895DE2BF8CFCF93DF9390E0FC01E55685
:10029000FF4F249189579F4FFC0184918823D1F00F
:1002A00090E0880F991FFC01E759FF4FA591B49189
:1002B000FC01ED58FF4FC591D49161110EC09FB75D
:1002C000F8948C91E22FE0958E238C932881E22381
:1002D000E8839FBFDF91CF9108958FB7F894EC9199
:1002E000E22BEC938FBFF6CF3FB7F89480912F01AC
:1002F00090913001A0913101B091320126B5A89BB7
:1003000005C02F3F19F00196A11DB11D3FBFBA2FA7
:10031000A92F982F8827BC01CD01620F711D811D67
:10032000911D42E0660F771F881F991F4A95D1F7EC
:1003300008959091000189130BC0E8E6F0E0E49184
:100340009FEF90930001E13049F028F0E23061F036
:1003500060E00C94150110926E00FACF90916F003E
:100360009D7F90936F00F4CF909170009D7F90934C
:10037000700091E09093B0009091B100987F9460EC
:100380009093B1001092B300E3CFAF92BF92CF929F
:10039000DF92EF92FF920F931F93CF93DF936C0145
:1003A0007B018B01040F151FEB015E01AE18BF0826
:1003B000C017D10759F06991D601ED91FC910190D8
:1003C000F081E02DC6010995892B79F7C501DF91F0
:1003D000CF911F910F91FF90EF90DF90CF90BF9042
:1003E000AF900895FC01538D448D252F30E0842F6C
:1003F00090E0821B930B541710F0CF96089501974D
:100400000895FC01918D828D981761F0A28DAE0F39
:10041000BF2FB11D5D968C91928D9F5F9F73928FC0
:1004200090E008958FEF9FEF0895FC01918D828DEC
:10043000981731F0828DE80FF11D858D90E00895B9
:100440008FEF9FEF0895FC01918D228D892F90E011
:10045000805C9F4F821B91098F739927089583E3D6
:1004600091E00E94230221E0892B09F420E0822FF1
:10047000089580E090E0892B29F00E942F028111DD
:100480000C9400000895FC01A48DA80FB92FB11D94
:10049000A35ABF4F2C91848D90E001968F739927BA
:1004A000848FA689B7892C93A089B1898C91837098
:1004B00080648C93938D848D981306C00288F38991
:1004C000E02D80818F7D80830895EF92FF920F93BE
:1004D0001F93CF93DF93EC0181E0888F9B8D8C8DF0
:1004E00098131AC0E889F989808185FF15C09FB7E4
:1004F000F894EE89FF896083E889F98980818370A7
:10050000806480839FBF81E090E0DF91CF911F9155
:100510000F91FF90EF900895F62E0B8D10E00F5F76
:100520001F4F0F731127E02E8C8D8E110CC00FB64C
:1005300007FCFACFE889F989808185FFF5CFCE01E4
:100540000E944302F1CFEB8DEC0FFD2FF11DE35A1A
:10055000FF4FF0829FB7F8940B8FEA89FB89808167
:100560008062CFCFCF93DF93EC01888D8823B9F0E1
:10057000AA89BB89E889F9898C9185FD03C08081AE
:1005800086FD0DC00FB607FCF7CF8C9185FFF2CF2B
:10059000808185FFEDCFCE010E944302E9CFDF913C
:1005A000CF9108951F920F920FB60F9211242F939F
:1005B0003F938F939F93AF93BF9380912B01909123
:1005C0002C01A0912D01B0912E0130912A0123E040
:1005D000230F2D3758F50196A11DB11D20932A0137
:1005E00080932B0190932C01A0932D01B0932E01A9
:1005F00080912F0190913001A0913101B091320191
:100600000196A11DB11D80932F0190933001A093FD
:100610003101B0933201BF91AF919F918F913F9182
:100620002F910F900FBE0F901F90189526E8230F63
:100630000296A11DB11DD2CF1F920F920FB60F923D
:1006400011242F933F934F935F936F937F938F93D7
:100650009F93AF93BF93EF93FF9380912601909167
:100660002701A0912801B0912901892B8A2B8B2B7E
:10067000D1F190912501E0912301F0912401808135
:10068000892780838091260190912701A0912801DC
:10069000B0912901181619061A061B069CF48091C0
:1006A000260190912701A0912801B091290101977D
:1006B000A109B1098093260190932701A0932801F5
:1006C000B0932901FF91EF91BF91AF919F918F91CD
:1006D0007F916F915F914F913F912F910F900FBE3E
:1006E0000F901F901895809100010E949901EACF08
:1006F0001F920F920FB60F9211242F933F934F9397
:100700005F936F937F938F939F93AF93BF93EF9379
:10071000FF9383E391E00E944302FF91EF91BF9129
:10072000AF919F918F917F916F915F914F913F9189
:100730002F910F900FBE0F901F9018951F920F9240
:100740000FB60F9211242F938F939F93EF93FF93E4
:10075000E0914301F09144018081E0914901F091E1
:100760004A0182FD1BC0908180914C018F5F8F7385
:1007700020914D01821741F0E0914C01F0E0ED5CD9
:10078000FE4F958F80934C01FF91EF919F918F9138
:100790002F910F900FBE0F901F9018958081F4CF6E
:1007A0001F920F920FB60F9211242F933F934F93E6
:1007B0005F936F937F938F939F93AF93BF93CF93E9
:1007C000DF93EF93FF9380911401C091F401D0E087
:1007D00087FF24C01092850010928400809114013C
:1007E0008F5F8093140180911401082E000C990BE7
:1007F0008C179D0724F4809114018C30C4F18091F2
:10080000840090918500049680349C4908F47AC055
:100810008091840090918500049676C080911401A7
:10082000082E000C990B8C179D07C4F6E09114015B
:100830008E2FEE0F990BFC01EE0FFF1FE80FF91F33
:10084000E053FE4F808186FFC9CFE09114018E2FC7
:10085000EE0F990BFC01EE0FFF1FE80FF91FE0539D
:10086000FE4F808160E08F730E941501B7CF209109
:10087000840030918500E09114018E2FEE0F990BCA
:10088000FC01EE0FFF1FE80FF91FE053FE4F8181BF
:100890009281820F931F9093890080938800E0914A
:1008A00014018E2FEE0F990BFC01EE0FFF1FE80FC6
:1008B000F91FE053FE4F808186FF11C0E0911401C3
:1008C0008E2FEE0F990BFC01EE0FFF1FE80FF91FA3
:1008D000E053FE4F808161E08F730E941501FF910C
:1008E000EF91DF91CF91BF91AF919F918F917F91C8
:1008F0006F915F914F913F912F910F900FBE0F908D
:100900001F90189580E49CE990938900809388005B
:100910008FEF80931401E3CF1092360110923501CE
:1009200088EE93E0A0E0B0E0809337019093380127
:10093000A0933901B0933A0185E091E0909334019E
:100940008093330185EC90E09093400180933F01C8
:1009500084EC90E0909342018093410180EC90E020
:10096000909344018093430181EC90E09093460181
:100970008093450182EC90E0909348018093470179
:1009800086EC90E090934A018093490110924C01CB
:1009900010924D0110924E0110924F018091F4017E
:1009A0008C3098F491E0980F9093F4018093F501C6
:1009B00090E0FC01EE0FFF1FE80FF91FE053FE4F20
:1009C00088EB9BE09283818308958FEF8093F501FC
:1009D0000895789484B5826084BD84B5816084BDB7
:1009E00085B5826085BD85B5816085BD80916E00CD
:1009F000816080936E0010928100809181008260FE
:100A0000809381008091810081608093810080913A
:100A100080008160809380008091B1008460809329
:100A2000B1008091B00081608093B00080917A0025
:100A3000846080937A0080917A00826080937A004B
:100A400080917A00816080937A0080917A0080683A
:100A500080937A001092C10061E082E00E9443011D
:100A600061E083E00E94430161E084E00E94430171
:100A700061E085E00E94430160E08EE00E94430156
:100A800060E08CE00E94430161E089E00E94430144
:100A90008091F5018C3008F051C061E08AE00E943D
:100AA00043018091F501282F30E0F901EE0FFF1F7F
:100AB000E20FF31FE053FE4F9081907C9A60908389
:100AC0001092F6011092F7012CE0622F0E94EB07C2
:100AD000829FB001112430E020E0AB01420F531F90
:100AE000FA01EE0FFF1FE40FF51FE053FE4F908158
:100AF00096FD16C02F5F3F4F2C30310571F78111E5
:100B00000FC01092800082E08093810010928500D7
:100B100010928400B19A80916F00826080936F0080
:100B2000E091F5018E2F90E0FC01EE0FFF1FE80F22
:100B3000F91FE053FE4F808180648083E091430180
:100B4000F091440182E08083E0913F01F091400107
:100B50001082E0914101F09142018FEC808310926C
:100B60004B01E0914701F091480186E08083E091DC
:100B70004501F0914601808180618083E0914501CB
:100B8000F0914601808188608083E0914501F09179
:100B90004601808180688083E0914501F0914601A3
:100BA00080818F7D8083A8E82A2E312CCC24CA94A2
:100BB000DC2C760120E420937C0080917A00806414
:100BC00080937A0080917A0086FDFCCF8091780036
:100BD000C0917900DC2FC82F8CE00E94EC008C01C2
:100BE0009093200180931F0189E00E94EC00D7FDC3
:100BF0002396D595C795D595C795D0932201C093D7
:100C000021010E9474012B013C01F4E68F2E912CEE
:100C1000A12CB12C0E9474016419750986099709E9
:100C2000683E734081059105A8F331E0831A91086D
:100C3000A108B10888EE480E83E0581E611C711CA3
:100C400081149104A104B10429F70130110509F0C0
:100C500030C180910001893031F5E8E6F0E0C491BF
:100C6000C7FDC6C061E089E00E944301CC2309F4BE
:100C70008FC0C23009F0A0C08091B100887F83602E
:100C80008093B1008CE78093B300C0922601D0928C
:100C90002701E0922801F092290180917000826082
:100CA00080937000A5C08F3F09F0A2C089E08093B7
:100CB0000001E8E6F0E0C491CF3F09F499C0C130EB
:100CC00029F150F0C23009F440C0C7FD91C061E085
:100CD00089E00E944301CDCF14BC15BC84B582606D
:100CE00084BD85B5816085BDE0E9F0E08491E82FA1
:100CF000F0E0EE0FFF1FED58FF4F85919491E4EA6D
:100D0000F0E0849180931601C0E0ACCF1092800097
:100D10001092810080918100886080938100809191
:100D20008100816080938100E0E9F0E08491E82F08
:100D3000F0E0EE0FFF1FED58FF4F85919491E4EA2C
:100D4000F0E08491809315018DCF1092B000109245
:100D5000B1008091B00082608093B0008091B100BA
:100D600081608093B100E0E9F0E08491E82FF0E049
:100D7000EE0FFF1FED58FF4F859194919093240142
:100D800080932301E4EAF0E08491809325016ACF07
:100D900085B5887F836085BD8DE387BDC0921B01CB
:100DA000D0921C01E0921D01F0921E0180916E0014
:100DB000826080936E001CC0C13009F072C08091C7
:100DC0008100887F8160809381002FE93FE030932C
:100DD000890020938800C0921701D0921801E092F8
:100DE0001901F0921A0180916F00826080936F0068
:100DF0008091F6014101881A910887FD9394880C2F
:100E0000991C880C991C092C000CAA08BB0880911D
:100E1000F70128E532E0281B310987FD3395220FC1
:100E2000331F220F331F032E000C440B550B2819C0
:100E300039094A095B09AAE5B0E00E94AF0724EB33
:100E400030E040E050E00E949007DA01C901880DCF
:100E5000991DAA1DBB1D0E948D00809121019091BA
:100E600022018A3F9105ACF161E082E00E94150108
:100E700061E083E00E94150161E084E00E941501B9
:100E800061E085E00E94150120E030E0232B09F4A9
:100E900091CE0E942F02882309F48CCE0E9400007C
:100EA00089CEC23021F0C111A3CF8FE976CF8FE96F
:100EB000EACE89E00E9499018091F601F101E81BD8
:100EC000F10987FDF395CF01880F991F880F991FAE
:100ED000C2CF8D37910574F061E082E00E94150168
:100EE00061E083E00E94150161E084E00E94150149
:100EF00060E0C7CF8F33910554F061E082E00E943B
:100F0000150161E083E00E94150160E0EECF61E031
:100F100080970CF460E082E00E94150160E0F2CF5F
:100F2000052E97FB1EF400940E94A70757FD07D0DB
:100F30000E94BA0707FC03D04EF40C94A707509503
:100F40004095309521953F4F4F4F5F4F08959095B5
:100F50008095709561957F4F8F4F9F4F08950E94A8
:100F6000DC07A59F900DB49F900DA49F800D911D4F
:100F700011240895A1E21A2EAA1BBB1BFD010DC06E
:100F8000AA1FBB1FEE1FFF1FA217B307E407F50739
:100F900020F0A21BB30BE40BF50B661F771F881F15
:100FA000991F1A9469F760957095809590959B01AB
:100FB000AC01BD01CF010895A29FB001B39FC00154
:100FC000A39F700D811D1124911DB29F700D811D75
:100FD0001124911D0895991B79E004C0991F96175B
:100FE00008F0961B881F7A95C9F780950895EE0F33
:0E0FF000FF1F0590F491E02D0994F894FFCFB7
:100FFE00FF000000006502C501F201B202230201EA
:04100E0002150200C5
:00000001FF
