:100000000C9461000C9473000C9473000C947300B6
:100010000C9473000C9473000C9473000C94730094
:100020000C9473000C9473000C9473000C94730084
:100030000C9473000C9473000C9473000C94730074
:100040000C945C020C9473000C9473000C94730079
:100050000C9473000C9473000C9473000C94730054
:100060000C9473000C947300000000002300260021
:10007000290000000000240027002A0000000000E2
:10008000250028002B0004040404040404040202D4
:100090000202020203030303030301020408102007
:1000A0004080010204081020010204081020000012
:1000B0000008000201000003040700000000000027
:1000C000000011241FBECFEFD8E0DEBFCDBF21E07E
:1000D000A0E0B1E001C01D92AB30B207E1F70E9491
:1000E000A6020C9454030C940000833081F028F491
:1000F000813099F08230A9F008958730A9F08830D6
:10010000C9F08430B1F4809180008F7D03C080916C
:1001100080008F7780938000089584B58F7784BDA9
:10012000089584B58F7DFBCF8091B0008F77809349
:10013000B00008958091B0008F7DF9CF1F93CF93C9
:10014000DF93282F30E0F901E255FF4F8491F90148
:10015000E656FF4FD491F901EA57FF4FC491CC23E3
:10016000A9F0162F81110E947500EC2FF0E0EE0F20
:10017000FF1FE458FF4FA591B4918FB7F894EC910D
:10018000111108C0D095DE23DC938FBFDF91CF9192
:100190001F910895DE2BF8CFCF93DF9390E0FC0101
:1001A000E656FF4F24918A579F4FFC018491882384
:1001B000D1F090E0880F991FFC01EE58FF4FA591F8
:1001C000B491FC01E458FF4FC591D49161110EC068
:1001D0009FB7F8948C91E22FE0958E238C93288121
:1001E000E223E8839FBFDF91CF9108958FB7F89402
:1001F000EC91E22BEC938FBFF6CF3FB7F894809150
:10020000070190910801A0910901B0910A0126B55A
:10021000A89B05C02F3F19F00196A11DB11D3FBF3E
:10022000BA2FA92F982F8827BC01CD01620F711D0D
:10023000811D911D42E0660F771F881F991F4A9507
:10024000D1F708958F929F92AF92BF92CF92DF9293
:10025000EF92FF924B015C010E94FD006B017C015B
:100260000E94FD006C197D098E099F09683E73404C
:1002700081059105A8F321E0821A9108A108B1082F
:1002800088EEC80E83E0D81EE11CF11C8114910495
:10029000A104B10429F7FF90EF90DF90CF90BF90B9
:1002A000AF909F908F90089561E082E00E949E0041
:1002B00060E083E00E949E0060E084E00E949E0077
:1002C00061E085E00E949E0068EC70E080E090E0D4
:1002D0000E94220161E082E00E949E0061E083E0D2
:1002E0000E949E0061E084E00E949E0061E085E043
:1002F0000E949E0068EC70E080E090E00E94220185
:1003000061E082E00E949E0060E083E00E949E0027
:1003100060E084E00E949E0061E085E00E949E0013
:1003200068EC70E080E090E00E94220160E082E0F2
:100330000E949E0060E083E00E949E0060E084E0F6
:100340000E949E0060E085E00E949E0068EC70E0E4
:1003500080E090E00C94220161E082E00E949E0027
:1003600060E083E00E949E0060E084E00E949E00C6
:1003700060E085E00E949E0064E670E080E090E02E
:100380000E94220161E082E00E949E0061E083E021
:100390000E949E0060E084E00E949E0060E085E094
:1003A0000E949E0064E670E080E090E00E942201DE
:1003B00061E082E00E949E0061E083E00E949E0076
:1003C00061E084E00E949E0060E085E00E949E0063
:1003D00064E670E080E090E00E94220161E082E04B
:1003E0000E949E0061E083E00E949E0061E084E044
:1003F0000E949E0061E085E00E949E0064E670E03D
:1004000080E090E00E94220160E082E00E949E0075
:1004100061E083E00E949E0061E084E00E949E0013
:1004200061E085E00E949E0064E670E080E090E07C
:100430000E94220160E082E00E949E0060E083E072
:100440000E949E0061E084E00E949E0061E085E0E1
:100450000E949E0064E670E080E090E00E9422012D
:1004600060E082E00E949E0060E083E00E949E00C7
:1004700060E084E00E949E0061E085E00E949E00B2
:1004800064E670E080E090E00E94220160E082E09B
:100490000E949E0060E083E00E949E0060E084E095
:1004A0000E949E0060E085E00E949E0064E670E08D
:1004B00080E090E00C9422011F920F920FB60F92F1
:1004C00011242F933F938F939F93AF93BF9380916A
:1004D000030190910401A0910501B09106013091B2
:1004E000020123E0230F2D3758F50196A11DB11D00
:1004F000209302018093030190930401A0930501CE
:10050000B09306018091070190910801A091090123
:10051000B0910A010196A11DB11D8093070190932E
:100520000801A0930901B0930A01BF91AF919F9177
:100530008F913F912F910F900FBE0F901F901895A4
:1005400026E8230F0296A11DB11DD2CF789484B561
:10055000826084BD84B5816084BD85B5826085BDBF
:1005600085B5816085BD80916E00816080936E004D
:10057000109281008091810082608093810080913F
:1005800081008160809381008091800081608093F0
:1005900080008091B10084608093B1008091B000B0
:1005A00081608093B00080917A00846080937A00AB
:1005B00080917A00826080937A0080917A008160D5
:1005C00080937A0080917A00806880937A001092FC
:1005D000C10060E08DE00E94CC0061E082E00E94FA
:1005E000CC0061E083E00E94CC0061E084E00E94E6
:1005F000CC0061E085E00E94CC00CBEBD0E007EAC4
:1006000010E093E9E92E90E0F92E20E0C22E20E0E0
:10061000D22EFE018491F801A490F701B490BB2082
:1006200079F181110E947500EB2DF0E0EE0FFF1FB4
:10063000E859FF4FA591B4918C91A82291E080E0F8
:1006400009F490E0A92EB82EB0920101A092000109
:100650006AE070E080E090E00E942201AA94AB285A
:1006600091F40E94AC010E94AC010E9454010E94CE
:100670005401C114D10409F4CCCF0E940000C9CFA9
:10068000B12CA12CE1CF60E082E00E949E0060E0EE
:1006900083E00E949E0060E084E00E949E0060E093
:0C06A00085E00E949E00E5CFF894FFCF9B
:00000001FF
