:100000000C945E000C9486000C9486000C94860080
:100010000C9486000C9486000C9486000C942C049E
:100020000C9486000C9486000C9486000C94E004DA
:100030000C9486000C9486000C9486000C94860028
:100040000C94E2030C9486000C94AE040C94880487
:100050000C9486000C9486000C9486000C94860008
:100060000C9486000C9486000000000024002700F9
:100070002A0000000008000201000003040700003D
:10008000000000000000010204081020408001026E
:1000900004081020010204081020000000002500C0
:1000A00028002B00040404040404040402020202D5
:1000B000020203030303030302009C0511241FBE75
:1000C000CFEFD8E0DEBFCDBF11E0A0E0B1E0EEE6BB
:1000D000F0E102C005900D92A431B107D9F721E0FB
:1000E000A4E1B1E001C01D92A63FB207E1F710E024
:1000F000CEE5D0E004C02197FE010E942F08CD3547
:10010000D107C9F70E94F9050C9435080C9400003A
:100110008F929F92AF92BF92FF920F931F93CF93B4
:10012000DF93F090F3012BE02F1508F44CC02091E1
:10013000F50108E512E0021B110927FD1395000FD8
:10014000111F000F111F2091F401C8E8D0E0C21B5D
:10015000D10927FDD395CC0FDD1FCC0FDD1F4E013C
:100160000D2E000CAA08BB089801012E000C440BB0
:10017000550B281939094A095B09DC010E94EA0775
:1001800024EB30E040E050E00E94C007820E931E56
:10019000A41EB51E8C169D062CF0E8018016910653
:1001A0000CF4E4012297CC0FDD1F2FB7F8948F2DAC
:1001B00090E0FC01EE0FFF1FE80FF91FE253FE4F26
:1001C000D283C1832FBFDF91CF911F910F91FF90F9
:1001D000BF90AF909F908F90089590E0FC01EE58F3
:1001E000FF4F2491FC01EA57FF4F3491FC01EC557D
:1001F000FF4FE491EE23C9F0222339F0233001F1BF
:10020000A8F4213019F1223029F1F0E0EE0FFF1FA0
:10021000E656FF4FA591B4918FB7F894EC91611118
:1002200026C030953E233C938FBF08952730A9F018
:100230002830C9F0243049F7809180008F7D03C0B9
:10024000809180008F7780938000DFCF84B58F7797
:1002500084BDDBCF84B58F7DFBCF8091B0008F77DD
:100260008093B000D2CF8091B0008F7DF9CF3E2B2C
:10027000DACFCF93DF9390E0FC01EA57FF4F249150
:100280008C559F4FFC0184918823D1F090E0880F1A
:10029000991FFC01E859FF4FA591B491FC01E65666
:1002A000FF4FC591D49161110EC09FB7F8948C9106
:1002B000E22FE0958E238C932881E223E8839FBF71
:1002C000DF91CF9108958FB7F894EC91E22BEC93E6
:1002D0008FBFF6CFCF92DF92EF92FF92CF936C0158
:1002E00080910001893049F08F3F09F444C0CF91DB
:1002F000FF90EF90DF90CF900895E8EBF0E0C4918D
:10030000C7FDF5CF61E089E00E943901F12CE12CB5
:10031000CC23D9F0960150E040E0C23009F09AC0F9
:100320007A0160E970ED83E090E00E94C007BA01B5
:10033000A901415051096109710993E04F3F5105ED
:100340006105710509F00CF4C1C068E478EE81E044
:1003500090E0A70196010E94C007BA01A90141508F
:1003600051096109710994E0C111B0C085B5887F58
:10037000836085BDB7C089E080930001E8EBF0E0C1
:10038000C491CF3F09F4B3CFC13021F150F0C23056
:1003900009F43EC0C7FDABCF61E089E00E9439019E
:1003A000B9CF14BC15BC84B5826084BD85B58160AD
:1003B00085BDEDEAF0E0E491F0E0EE0FFF1FE656B8
:1003C000FF4F85919491EFE8F0E0E491E0932401F0
:1003D000C0E098CF1092800010928100809181003F
:1003E000886080938100809181008160809381008A
:1003F000EDEAF0E0E491F0E0EE0FFF1FE656FF4F6C
:1004000085919491EFE8F0E0E491E09323017ACFB5
:100410001092B0001092B1008091B0008260809381
:10042000B0008091B10081608093B100EDEAF0E00E
:10043000E491F0E0EE0FFF1FE656FF4F8591949197
:100440009093220180932101EFE8F0E0E491E093A2
:10045000200158CF60E072E18AE790E00E94C00777
:10046000BA01A9014150510961097109C130A1F5D1
:1004700080918100887F8160809381005093890002
:10048000409388008FEF9FEFDC01809329019093C8
:100490002A01A0932B01B0932C0180916F00826000
:1004A00080936F0024CF4093B3008FEF9FEFDC0168
:1004B0008093250190932601A0932701B0932801F2
:1004C0008091700082608093700011CF8091B100A4
:1004D000887F892B8093B100C13081F2C23019F33B
:1004E000C11105CF47BD8FEF9FEFDC0180932D0138
:1004F00090932E01A0932F01B093300180916E0054
:10050000826080936E00F3CE3FB7F89480911C0117
:1005100090911D01A0911E01B0911F0126B5A89BCD
:1005200005C02F3F19F00196A11DB11D3FBFBA2F85
:10053000A92F982F8827BC01CD01620F711D811D45
:10054000911D42E0660F771F881F991F4A95D1F7CA
:1005500008959091000189130BC0E8EBF0E0E4915D
:100560009FEF90930001E13049F028F0E23061F014
:1005700060E00C94ED0010926E00FACF90916F0045
:100580009D7F90936F00F4CF909170009D7F90932A
:10059000700091E09093B0009091B100987F9460CA
:1005A0009093B1001092B300E3CFAF92BF92CF927D
:1005B000DF92EF92FF920F931F93CF93DF936C0123
:1005C0007B018B01040F151FEB015E01AE18BF0804
:1005D000C017D10759F06991D601ED91FC910190B6
:1005E000F081E02DC6010995892B79F7C501DF91CE
:1005F000CF911F910F91FF90EF90DF90CF90BF9020
:10060000AF900895FC01538D448D252F30E0842F49
:1006100090E0821B930B541710F0CF96089501972A
:100620000895FC01918D828D981761F0A28DAE0F17
:10063000BF2FB11D5D968C91928D9F5F9F73928F9E
:1006400090E008958FEF9FEF0895FC01918D828DCA
:10065000981731F0828DE80FF11D858D90E0089597
:100660008FEF9FEF0895FC01918D228D892F90E0EF
:10067000805C9F4F821B91098F739927089581E3B6
:1006800091E00E94330321E0892B09F420E0822FBE
:10069000089580E090E0892B29F00E943F038111AA
:1006A0000C9400000895FC01A48DA80FB92FB11D72
:1006B000A35ABF4F2C91848D90E001968F73992798
:1006C000848FA689B7892C93A089B1898C91837076
:1006D00080648C93938D848D981306C00288F3896F
:1006E000E02D80818F7D80830895EF92FF920F939C
:1006F0001F93CF93DF93EC0181E0888F9B8D8C8DCE
:1007000098131AC0E889F989808185FF15C09FB7C1
:10071000F894EE89FF896083E889F9898081837084
:10072000806480839FBF81E090E0DF91CF911F9133
:100730000F91FF90EF900895F62E0B8D10E00F5F54
:100740001F4F0F731127E02E8C8D8E110CC00FB62A
:1007500007FCFACFE889F989808185FFF5CFCE01C2
:100760000E945303F1CFEB8DEC0FFD2FF11DE35AE7
:10077000FF4FF0829FB7F8940B8FEA89FB89808145
:100780008062CFCFCF93DF93EC01888D8823B9F0BF
:10079000AA89BB89E889F9898C9185FD03C080818C
:1007A00086FD0DC00FB607FCF7CF8C9185FFF2CF09
:1007B000808185FFEDCFCE010E945303E9CFDF9109
:1007C000CF9108951F920F920FB60F9211242F937D
:1007D0003F938F939F93AF93BF9380911801909114
:1007E0001901A0911A01B0911B013091170123E06A
:1007F000230F2D3758F50196A11DB11D2093170128
:100800008093180190931901A0931A01B0931B01D2
:1008100080911C0190911D01A0911E01B0911F01BA
:100820000196A11DB11D80931C0190931D01A09301
:100830001E01B0931F01BF91AF919F918F913F9186
:100840002F910F900FBE0F901F90189526E8230F41
:100850000296A11DB11DD2CF1F920F920FB60F921B
:1008600011242F933F934F935F936F937F938F93B5
:100870009F93AF93BF93EF93FF9380912501909146
:100880002601A0912701B0912801892B8A2B8B2B5F
:10089000D1F190912001E0912101F091220180811C
:1008A000892780838091250190912601A0912701BD
:1008B000B0912801181619061A061B069CF480919F
:1008C000250190912601A0912701B091280101975F
:1008D000A109B1098093250190932601A0932701D6
:1008E000B0932801FF91EF91BF91AF919F918F91AC
:1008F0007F916F915F914F913F912F910F900FBE1C
:100900000F901F901895809100010E94A902EACFD4
:100910001F920F920FB60F9211242F933F934F9374
:100920005F936F937F938F939F93AF93BF93EF9357
:10093000FF9381E391E00E945303FF91EF91BF91F8
:10094000AF919F918F917F916F915F914F913F9167
:100950002F910F900FBE0F901F9018951F920F921E
:100960000FB60F9211242F938F939F93EF93FF93C2
:10097000E0914101F09142018081E0914701F091C5
:10098000480182FD1BC0908180914A018F5F8F7367
:1009900020914B01821741F0E0914A01F0E0EF5CB9
:1009A000FE4F958F80934A01FF91EF919F918F9118
:1009B0002F910F900FBE0F901F9018958081F4CF4C
:1009C0001F920F920FB60F9211242F933F934F93C4
:1009D0005F936F937F938F939F93AF93BF93CF93C7
:1009E000DF93EF93FF9380911401C091F201D0E067
:1009F00087FF24C01092850010928400809114011A
:100A00008F5F8093140180911401082E000C990BC4
:100A10008C179D0724F4809114018C30C4F18091CF
:100A2000840090918500049680349C4908F47AC033
:100A30008091840090918500049676C08091140185
:100A4000082E000C990B8C179D07C4F6E091140139
:100A50008E2FEE0F990BFC01EE0FFF1FE80FF91F11
:100A6000E253FE4F808186FFC9CFE09114018E2FA3
:100A7000EE0F990BFC01EE0FFF1FE80FF91FE25379
:100A8000FE4F808160E08F730E94ED00B7CF209110
:100A9000840030918500E09114018E2FEE0F990BA8
:100AA000FC01EE0FFF1FE80FF91FE253FE4F81819B
:100AB0009281820F931F9093890080938800E09128
:100AC00014018E2FEE0F990BFC01EE0FFF1FE80FA4
:100AD000F91FE253FE4F808186FF11C0E09114019F
:100AE0008E2FEE0F990BFC01EE0FFF1FE80FF91F81
:100AF000E253FE4F808161E08F730E94ED00FF9111
:100B0000EF91DF91CF91BF91AF919F918F917F91A5
:100B10006F915F914F913F912F910F900FBE0F906A
:100B20001F90189580E49CE9909389008093880039
:100B30008FEF80931401E3CF1092340110923301B0
:100B400088EE93E0A0E0B0E0809335019093360109
:100B5000A0933701B093380185E091E09093320182
:100B60008093310185EC90E090933E0180933D01AC
:100B700084EC90E09093400180933F0180EC90E002
:100B8000909342018093410181EC90E09093440165
:100B90008093430182EC90E090934601809345015D
:100BA00086EC90E0909348018093470110924A01AF
:100BB00010924B0110924C0110924D018091F20164
:100BC0008C3098F491E0980F9093F2018093F301A8
:100BD00090E0FC01EE0FFF1FE80FF91FE253FE4FFC
:100BE00088EB9BE09283818308958FEF8093F301DC
:100BF0000895789484B5826084BD84B5816084BD95
:100C000085B5826085BD85B5816085BD80916E00AA
:100C1000816080936E0010928100809181008260DB
:100C20008093810080918100816080938100809118
:100C300080008160809380008091B1008460809307
:100C4000B1008091B00081608093B00080917A0003
:100C5000846080937A0080917A00826080937A0029
:100C600080917A00816080937A0080917A00806818
:100C700080937A001092C10061E082E00E94390105
:100C800061E083E00E94390161E084E00E94390163
:100C900061E085E00E94390160E08EE00E94390148
:100CA00061E089E00E9439018091F3018C3008F005
:100CB00051C061E08AE00E9439018091F301282F40
:100CC00030E0F901EE0FFF1FE20FF31FE253FE4F7A
:100CD0009081907C9A6090831092F4011092F501BB
:100CE0002CE0622F0E942308829FB001112430E083
:100CF00020E0AB01420F531FFA01EE0FFF1FE40F7C
:100D0000F51FE253FE4F908196FD16C02F5F3F4FB7
:100D10002C30310571F781110FC01092800082E0F4
:100D2000809381001092850010928400B19A809186
:100D30006F00826080936F00E091F3018E2F90E04E
:100D4000FC01EE0FFF1FE80FF91FE253FE4F8081F9
:100D500080648083E0914101F091420182E08083D0
:100D6000E0913D01F0913E011082E0913F01F09150
:100D700040018FEC808310924901E0914501F09190
:100D8000460186E08083E0914301F0914401808137
:100D900080618083E0914301F0914401808188600B
:100DA0008083E0914301F0914401808180688083D9
:100DB000E0914301F091440180818F7D808320E4A4
:100DC000722E00E010E070927C0080917A008064C6
:100DD00080937A0080917A0086FDFCCF8091780024
:100DE000C0917900DC2FC82FD7FD2396D595C795E4
:100DF000D595C795D0931601C09315010E94840222
:100E00004B015C0194E6C92ED12CE12CF12C0E94FF
:100E10008402681979098A099B09683E7340810533
:100E20009105A8F321E0C21AD108E108F10888EE83
:100E3000880E83E0981EA11CB11CC114D104E104EA
:100E4000F10429F7CA3FD105CCF080EE96E00E946C
:100E50006A018AE590E00E94880061E082E00E94D9
:100E6000ED0061E083E00E94ED0061E084E00E941B
:100E7000ED0061E085E00E94ED000BC0CA3AD105AB
:100E8000CCF08DE796E00E946A018EE490E00E942B
:100E900088006C2F81E391E00E9475030115110514
:100EA00009F491CF0E943F03882309F48CCF0E945C
:100EB000000089CFCD37D105B4F084E795E00E94DA
:100EC0006A0183E490E00E94880061E082E00E9471
:100ED000ED0061E083E00E94ED0061E084E00E94AB
:100EE000ED0060E0C7CFC535D1053CF086E295E066
:100EF0000E946A0188E390E0CACFCF33D10594F015
:100F000086E994E00E946A018DE290E00E948800E8
:100F100061E082E00E94ED0061E083E00E94ED006C
:100F200060E0DCCFCF32D1053CF086E194E00E9456
:100F30006A0181E290E0ABCFC032D10574F08BED55
:100F400093E00E946A0186E190E00E94880061E0DF
:100F500082E00E94ED0060E0E0CFCA30D1053CF0B5
:100F600080E793E00E946A018BE090E090CF89E0F7
:100F70000E94A90290E080E00E94880060E0E8CF33
:100F8000052E97FB1EF400940E94D70757FD07D04B
:100F90000E94F20707FC03D04EF40C94D70750953B
:100FA0004095309521953F4F4F4F5F4F0895909555
:100FB0008095709561957F4F8F4F9F4F08950E9448
:100FC0001408A59F900DB49F900DA49F800D911DB6
:100FD00011240895B7FF0C94DF070E94DF07821BDE
:100FE000930B0895A1E21A2EAA1BBB1BFD010DC095
:100FF000AA1FBB1FEE1FFF1FA217B307E407F507C9
:1010000020F0A21BB30BE40BF50B661F771F881FA4
:10101000991F1A9469F760957095809590959B013A
:10102000AC01BD01CF010895A29FB001B39FC001E3
:10103000A39F700D811D1124911DB29F700D811D04
:101040001124911D0895991B79E004C0991F9617EA
:1010500008F0961B881F7A95C9F780950895EE0FC2
:0E106000FF1F0590F491E02D0994F894FFCF46
:10106E00FF000000007503D5020203C20333031113
:04107E000325030043
:00000001FF
